{
  "_format": "hh-sol-artifact-1",
  "contractName": "Election",
  "sourceName": "contracts/Election.sol",
  "abi": [
    {
      "inputs": [
        {
          "internalType": "string[]",
          "name": "_candidateNames",
          "type": "string[]"
        }
      ],
      "stateMutability": "nonpayable",
      "type": "constructor"
    },
    {
      "inputs": [
        {
          "internalType": "uint256",
          "name": "",
          "type": "uint256"
        }
      ],
      "name": "candidates",
      "outputs": [
        {
          "internalType": "string",
          "name": "name",
          "type": "string"
        },
        {
          "internalType": "uint256",
          "name": "votes",
          "type": "uint256"
        }
      ],
      "stateMutability": "view",
      "type": "function"
    },
    {
      "inputs": [
        {
          "internalType": "uint256",
          "name": "_candidate",
          "type": "uint256"
        }
      ],
      "name": "castVote",
      "outputs": [],
      "stateMutability": "nonpayable",
      "type": "function"
    },
    {
      "inputs": [],
      "name": "leader",
      "outputs": [
        {
          "internalType": "address",
          "name": "",
          "type": "address"
        }
      ],
      "stateMutability": "view",
      "type": "function"
    },
    {
      "inputs": [
        {
          "internalType": "address",
          "name": "voter",
          "type": "address"
        }
      ],
      "name": "registerVoter",
      "outputs": [],
      "stateMutability": "nonpayable",
      "type": "function"
    },
    {
      "inputs": [
        {
          "internalType": "address",
          "name": "",
          "type": "address"
        }
      ],
      "name": "voters",
      "outputs": [
        {
          "internalType": "bool",
          "name": "registered",
          "type": "bool"
        },
        {
          "internalType": "bool",
          "name": "voted",
          "type": "bool"
        },
        {
          "internalType": "uint256",
          "name": "vote",
          "type": "uint256"
        }
      ],
      "stateMutability": "view",
      "type": "function"
    },
    {
      "inputs": [],
      "name": "winningCandidate",
      "outputs": [
        {
          "internalType": "uint256",
          "name": "winningCandidate_",
          "type": "uint256"
        }
      ],
      "stateMutability": "view",
      "type": "function"
    },
    {
      "inputs": [],
      "name": "winningCandidateName",
      "outputs": [
        {
          "internalType": "string",
          "name": "winnerName_",
          "type": "string"
        }
      ],
      "stateMutability": "view",
      "type": "function"
    }
  ],
  "bytecode": "0x608060405260008060146101000a81548160ff0219169083151502179055503480156200002b57600080fd5b50604051620014a6380380620014a68339818101604052810190620000519190620003c3565b336000806101000a81548173ffffffffffffffffffffffffffffffffffffffff021916908373ffffffffffffffffffffffffffffffffffffffff16021790555060018060008060009054906101000a900473ffffffffffffffffffffffffffffffffffffffff1673ffffffffffffffffffffffffffffffffffffffff1673ffffffffffffffffffffffffffffffffffffffff16815260200190815260200160002060000160006101000a81548160ff02191690831515021790555060005b8151811015620001dc576002604051806040016040528084848151811062000160577f4e487b7100000000000000000000000000000000000000000000000000000000600052603260045260246000fd5b60200260200101518152602001600081525090806001815401808255809150506001900390600052602060002090600202016000909190919091506000820151816000019080519060200190620001b9929190620001e4565b506020820151816001015550508080620001d39062000542565b9150506200010f565b50506200062e565b828054620001f290620004d6565b90600052602060002090601f01602090048101928262000216576000855562000262565b82601f106200023157805160ff191683800117855562000262565b8280016001018555821562000262579182015b828111156200026157825182559160200191906001019062000244565b5b50905062000271919062000275565b5090565b5b808211156200029057600081600090555060010162000276565b5090565b6000620002ab620002a58462000431565b62000408565b90508083825260208201905082856020860282011115620002cb57600080fd5b60005b858110156200031a57815167ffffffffffffffff811115620002ef57600080fd5b808601620002fe898262000396565b85526020850194506020840193505050600181019050620002ce565b5050509392505050565b60006200033b620003358462000460565b62000408565b9050828152602081018484840111156200035457600080fd5b62000361848285620004a0565b509392505050565b600082601f8301126200037b57600080fd5b81516200038d84826020860162000294565b91505092915050565b600082601f830112620003a857600080fd5b8151620003ba84826020860162000324565b91505092915050565b600060208284031215620003d657600080fd5b600082015167ffffffffffffffff811115620003f157600080fd5b620003ff8482850162000369565b91505092915050565b60006200041462000427565b90506200042282826200050c565b919050565b6000604051905090565b600067ffffffffffffffff8211156200044f576200044e620005ee565b5b602082029050602081019050919050565b600067ffffffffffffffff8211156200047e576200047d620005ee565b5b62000489826200061d565b9050602081019050919050565b6000819050919050565b60005b83811015620004c0578082015181840152602081019050620004a3565b83811115620004d0576000848401525b50505050565b60006002820490506001821680620004ef57607f821691505b60208210811415620005065762000505620005bf565b5b50919050565b62000517826200061d565b810181811067ffffffffffffffff82111715620005395762000538620005ee565b5b80604052505050565b60006200054f8262000496565b91507fffffffffffffffffffffffffffffffffffffffffffffffffffffffffffffffff82141562000585576200058462000590565b5b600182019050919050565b7f4e487b7100000000000000000000000000000000000000000000000000000000600052601160045260246000fd5b7f4e487b7100000000000000000000000000000000000000000000000000000000600052602260045260246000fd5b7f4e487b7100000000000000000000000000000000000000000000000000000000600052604160045260246000fd5b6000601f19601f8301169050919050565b610e68806200063e6000396000f3fe608060405234801561001057600080fd5b506004361061007d5760003560e01c806340eedabb1161005b57806340eedabb146100eb578063a3ec138d14610109578063d28178d71461013b578063d45236fd146101595761007d565b80633477ee2e1461008257806338db6dd3146100b35780633eb76b9c146100cf575b600080fd5b61009c60048036038101906100979190610887565b610177565b6040516100aa929190610a5c565b60405180910390f35b6100cd60048036038101906100c8919061085e565b610233565b005b6100e960048036038101906100e49190610887565b61043e565b005b6100f36105c1565b60405161010091906109e8565b60405180910390f35b610123600480360381019061011e919061085e565b6105e5565b60405161013293929190610a03565b60405180910390f35b610143610629565b6040516101509190610b4c565b60405180910390f35b61016161074c565b60405161016e9190610a3a565b60405180910390f35b6002818154811061018757600080fd5b90600052602060002090600202016000915090508060000180546101aa90610bfe565b80601f01602080910402602001604051908101604052809291908181526020018280546101d690610bfe565b80156102235780601f106101f857610100808354040283529160200191610223565b820191906000526020600020905b81548152906001019060200180831161020657829003601f168201915b5050505050908060010154905082565b60008054906101000a900473ffffffffffffffffffffffffffffffffffffffff1673ffffffffffffffffffffffffffffffffffffffff163373ffffffffffffffffffffffffffffffffffffffff16146102c1576040517f08c379a00000000000000000000000000000000000000000000000000000000081526004016102b890610acc565b60405180910390fd5b600160008273ffffffffffffffffffffffffffffffffffffffff1673ffffffffffffffffffffffffffffffffffffffff16815260200190815260200160002060000160019054906101000a900460ff1615610351576040517f08c379a000000000000000000000000000000000000000000000000000000000815260040161034890610b2c565b60405180910390fd5b600160008273ffffffffffffffffffffffffffffffffffffffff1673ffffffffffffffffffffffffffffffffffffffff16815260200190815260200160002060000160009054906101000a900460ff16156103e1576040517f08c379a00000000000000000000000000000000000000000000000000000000081526004016103d890610b0c565b60405180910390fd5b60018060008373ffffffffffffffffffffffffffffffffffffffff1673ffffffffffffffffffffffffffffffffffffffff16815260200190815260200160002060000160006101000a81548160ff02191690831515021790555050565b6000600160003373ffffffffffffffffffffffffffffffffffffffff1673ffffffffffffffffffffffffffffffffffffffff16815260200190815260200160002090508060000160009054906101000a900460ff166104d2576040517f08c379a00000000000000000000000000000000000000000000000000000000081526004016104c990610aac565b60405180910390fd5b8060000160019054906101000a900460ff1615610524576040517f08c379a000000000000000000000000000000000000000000000000000000000815260040161051b90610a8c565b60405180910390fd5b6002828154811061055e577f4e487b7100000000000000000000000000000000000000000000000000000000600052603260045260246000fd5b9060005260206000209060020201600101600081548092919061058090610c30565b919050555060018160000160016101000a81548160ff0219169083151502179055506001600060146101000a81548160ff0219169083151502179055505050565b60008054906101000a900473ffffffffffffffffffffffffffffffffffffffff1681565b60016020528060005260406000206000915090508060000160009054906101000a900460ff16908060000160019054906101000a900460ff16908060010154905083565b60008060149054906101000a900460ff16610679576040517f08c379a000000000000000000000000000000000000000000000000000000000815260040161067090610aec565b60405180910390fd5b60008060005b6002805490508110156107435782600282815481106106c7577f4e487b7100000000000000000000000000000000000000000000000000000000600052603260045260246000fd5b90600052602060002090600202016001015410610730578091506002818154811061071b577f4e487b7100000000000000000000000000000000000000000000000000000000600052603260045260246000fd5b90600052602060002090600202016001015492505b808061073b90610c30565b91505061067f565b50809250505090565b60606000610758610629565b905060028181548110610794577f4e487b7100000000000000000000000000000000000000000000000000000000600052603260045260246000fd5b906000526020600020906002020160000180546107b090610bfe565b80601f01602080910402602001604051908101604052809291908181526020018280546107dc90610bfe565b80156108295780601f106107fe57610100808354040283529160200191610829565b820191906000526020600020905b81548152906001019060200180831161080c57829003601f168201915b505050505091505090565b60008135905061084381610e04565b92915050565b60008135905061085881610e1b565b92915050565b60006020828403121561087057600080fd5b600061087e84828501610834565b91505092915050565b60006020828403121561089957600080fd5b60006108a784828501610849565b91505092915050565b6108b981610b83565b82525050565b6108c881610b95565b82525050565b60006108d982610b67565b6108e38185610b72565b93506108f3818560208601610bcb565b6108fc81610cd7565b840191505092915050565b6000610914600e83610b72565b915061091f82610ce8565b602082019050919050565b6000610937601883610b72565b915061094282610d11565b602082019050919050565b600061095a603183610b72565b915061096582610d3a565b604082019050919050565b600061097d601883610b72565b915061098882610d89565b602082019050919050565b60006109a0601c83610b72565b91506109ab82610db2565b602082019050919050565b60006109c3601883610b72565b91506109ce82610ddb565b602082019050919050565b6109e281610bc1565b82525050565b60006020820190506109fd60008301846108b0565b92915050565b6000606082019050610a1860008301866108bf565b610a2560208301856108bf565b610a3260408301846109d9565b949350505050565b60006020820190508181036000830152610a5481846108ce565b905092915050565b60006040820190508181036000830152610a7681856108ce565b9050610a8560208301846109d9565b9392505050565b60006020820190508181036000830152610aa581610907565b9050919050565b60006020820190508181036000830152610ac58161092a565b9050919050565b60006020820190508181036000830152610ae58161094d565b9050919050565b60006020820190508181036000830152610b0581610970565b9050919050565b60006020820190508181036000830152610b2581610993565b9050919050565b60006020820190508181036000830152610b45816109b6565b9050919050565b6000602082019050610b6160008301846109d9565b92915050565b600081519050919050565b600082825260208201905092915050565b6000610b8e82610ba1565b9050919050565b60008115159050919050565b600073ffffffffffffffffffffffffffffffffffffffff82169050919050565b6000819050919050565b60005b83811015610be9578082015181840152602081019050610bce565b83811115610bf8576000848401525b50505050565b60006002820490506001821680610c1657607f821691505b60208210811415610c2a57610c29610ca8565b5b50919050565b6000610c3b82610bc1565b91507fffffffffffffffffffffffffffffffffffffffffffffffffffffffffffffffff821415610c6e57610c6d610c79565b5b600182019050919050565b7f4e487b7100000000000000000000000000000000000000000000000000000000600052601160045260246000fd5b7f4e487b7100000000000000000000000000000000000000000000000000000000600052602260045260246000fd5b6000601f19601f8301169050919050565b7f416c726561647920766f7465642e000000000000000000000000000000000000600082015250565b7f566f746572206973206e6f7420726567697374657265642e0000000000000000600082015250565b7f4f6e6c792074686520656c656374696f6e206c65616465722063616e2067726160008201527f6e7420766f74696e67207269676874732e000000000000000000000000000000602082015250565b7f4e6f20766f7465732068617665206265656e20636173742e0000000000000000600082015250565b7f566f74657220697320616c726561647920726567697374657265642e00000000600082015250565b7f54686520766f74657220616c726561647920766f7465642e0000000000000000600082015250565b610e0d81610b83565b8114610e1857600080fd5b50565b610e2481610bc1565b8114610e2f57600080fd5b5056fea2646970667358221220eaae9ffb926c289ec1e4649ec86103e98b43b0517d3ab4c1bb13b8e3a86a0cb864736f6c63430008040033",
  "linkReferences": {},
  "deployedLinkReferences": {}
}